:020000040800F2
:10000000005000209137000801080008030800088C
:1000100000000000000000000000000000000000E0
:1000200000000000000000000000000005080008BB
:100030000000000000000000070800080908000890
:10004000E1370008E1370008E1370008E137000830
:10005000E1370008E1370008E1370008E137000820
:10006000E1370008E1370008E1370008E137000810
:10007000E1370008E1370008E1370008E137000800
:10008000E1370008E1370008E13700080000000010
:10009000E1370008E1370008E1370008E1370008E0
:1000A000E1370008E1370008E1370008E1370008D0
:1000B000E1370008E1370008E137000811080008BF
:1000C000054B0648033310B51B1A062B03D9044B06
:1000D000002B00D0984710BDD4000020D400002091
:1000E000000000000648074910B5091A8910CB0F17
:1000F0005918491003D0044B002B00D0984710BD6D
:10010000D4000020D40000200000000010B5074CEF
:100110002378002B09D1FFF7D3FF054B002B02D02A
:10012000044800E000BF0123237010BDD40000206C
:1001300000000000E4370008094B10B5002B03D085
:100140000849094800E000BF08480368002B02D1B5
:10015000FFF7C8FF10BD064B002BF9D09847F7E713
:1001600000000000D8000020E4370008D400002080
:100170000000000070B50D4E0D4D0024AD1BAD10FC
:1001800005D0A300F35801349847A542F9D103F0F4
:1001900029FB084E084D0024AD1BAD1005D0A3006F
:1001A000F35801349847A542F9D170BD443900088D
:1001B000443900084439000848390008F0B583077D
:1001C00043D0541E002A3FD0CEB20200032502E0E5
:1001D0001A00013C38D3531C16702B42F8D1032C63
:1001E0002AD9FF220A40150215432A0415430F2C71
:1001F00014D927001A00103F3E09013636019E1916
:10020000156055609560D56010329642F8D10F2286
:1002100097431037DB191440032C0DD91A00271F00
:10022000BE080136B6009E1920C2B242FCD103229C
:1002300097430437DB191440002C05D0C9B21C19B0
:10024000197001339C42FBD1F0BD14000300C6E7D6
:10025000002243088B4274D303098B425FD3030A05
:100260008B4244D3030B8B4228D3030C8B420DD318
:10027000FF22090212BA030C8B4202D312120902A6
:1002800065D0030B8B4219D300E0090AC30B8B42E4
:1002900001D3CB03C01A5241830B8B4201D38B0392
:1002A000C01A5241430B8B4201D34B03C01A524137
:1002B000030B8B4201D30B03C01A5241C30A8B427A
:1002C00001D3CB02C01A5241830A8B4201D38B0265
:1002D000C01A5241430A8B4201D34B02C01A524109
:1002E000030A8B4201D30B02C01A5241CDD2C3097B
:1002F0008B4201D3CB01C01A524183098B4201D3F7
:100300008B01C01A524143098B4201D34B01C01AE1
:10031000524103098B4201D30B01C01A5241C30859
:100320008B4201D3CB00C01A524183088B4201D3C8
:100330008B00C01A524143088B4201D34B00C01AB4
:100340005241411A00D20146524110467047FFE720
:1003500001B5002000F006F802BDC0460029F7D024
:1003600076E770477047C04682B0054AD16A0123DC
:100370001943D162D26A13400193019B02B07047C6
:100380000010024030B59FB03822002110A8FFF7BE
:1003900015FF142200210BA8FFF710FF28220021CF
:1003A00001A8FFF70BFF14490B68144A1A40802379
:1003B0001B0113430B602223109301251395123B5D
:1003C0001493169500241A9410A801F03BFB0F23F8
:1003D0000B930C950D940E940F9400210BA801F033
:1003E000F7FD402301938023DB040A9301A801F069
:1003F000C3FE1FB030BDC04600700040FFE7FFFFE6
:1004000010B501F0A5FAFFF7BDFFFFF7ADFF00F053
:1004100003F8FEE77047000010B5002211491248AA
:1004200002F038F8002811D110490F4802F04EF8B8
:1004300000280ED10E490C4803F0A2F900280BD178
:10044000094802F04CF8002809D110BDFFF7E2FF7F
:10045000EAE7FFF7DFFFEDE7FFF7DCFFF0E7FFF785
:10046000D9FFF2E7000000201406002070000020F1
:1004700050000020002803D0022803D0022070473B
:100480000020FCE70120FAE710B5FFF77BFF10BD65
:1004900010B50268094B9A4200D010BD084A916B12
:1004A00080231B040B439363002200211F2001F0D3
:1004B0006BFF1F2001F09AFFEFE7C046005C004091
:1004C0000010024010B501009C239B00C058403B27
:1004D0009C46614402F02EF810BD10B503009C222A
:1004E000920080584A019B183D33FF331A6802F08E
:1004F00053F810BD10B503009C22920080584A01A9
:100500009B18DA6B02F09DF810BD10B59C239B0080
:10051000C05802F053F910BD70B504008368022B77
:1005200001D0FFF777FF9C25AD000121605902F053
:100530002DF9605902F0FBF870BD000010B5040001
:100540009C239B00C05802F025F9A369002B04D01E
:10055000024A136906210B43136110BD00ED00E050
:1005600010B504008369002B05D19C239B00E05843
:1005700002F01CF910BD044A136906218B43136174
:10058000FFF782FFF1E7C04600ED00E070B5040020
:1005900013489C239B00C4502833E050114B036048
:1005A00008234360063B8360036100238361C361CA
:1005B000036200F043F900280FD1A625AD001823EF
:1005C00000220021605900F0A9FD60595823002243
:1005D000802100F0A3FD002070BDFFF71BFFECE7BA
:1005E000B0080020005C004010B5A6239B00C05856
:1005F00000F09CF9FFF73EFF10BD10B5A6239B004D
:10060000C05800F0AAF9FFF735FF10BD10B514006F
:100610001A00A6239B00C058230000F0D4F9FFF76E
:1006200029FF10BD10B5A6239B00C05800F0FAFCAE
:10063000FFF720FF10BD10B5A6239B00C05800F0A7
:1006400032FDFFF717FF10BD0A00A6239B00C35819
:1006500049B2002907DB7F21114049015B182B3388
:10066000FF33187870477F21114049015B182A3306
:100670001878F7E710B5A6239B00C05800F08DF955
:10068000FFF7F8FE10BD10B5A624A400005900F035
:10069000FDF9FFF7EFFE10BD10B5A624A400005928
:1006A00000F0CEF9FFF7E6FE10BD000000487047ED
:1006B000F00000207047000012230B8000487047B4
:1006C0001C00002004230B800048704730000020ED
:1006D00030B500230AE05D0037344C5500015C0062
:1006E00001340C19002525700133DBB2934206D288
:1006F000040F092CEFD85D0030344C55EEE730BDC7
:1007000070B50B4B18680B4B1D680B4B1B68C01862
:10071000002800D170BD094CA11C0822FFF7D8FFAA
:100720002100123104222800FFF7D2FFF2E7C04671
:100730005000F81F5400F81F5800F81F3400002024
:1007400010B51A230B80FFF7DBFF014810BDC04630
:100750003400002010B50A00002805D005490648DD
:1007600002F087FB034810BD0249034802F081FBF9
:10077000F8E7C046240B00202C38000810B50A000A
:10078000034C2100034802F074FB200010BDC0465A
:10079000240B00201838000810B50A00002805D0E6
:1007A0000549064802F065FB034810BD02490348AD
:1007B00002F05FFBF8E7C046240B0020FC3700087E
:1007C00010B50A00002805D00549064802F051FB83
:1007D000034810BD0249034802F04BFBF8E7C0464E
:1007E000240B0020083800080020704700207047C4
:1007F000002070470020704700207047002070479D
:100800007047FEE77047704710B501F0B5F810BDAE
:1008100010B5024800F02AFB10BDC046B008002009
:10082000054B5A6B01210A435A63996B802252058A
:100830000A439A637047C0460010024030B587B043
:10084000041E00D16EE0384BC35C002B07D003229E
:10085000354BE254206800F0ADFC00231AE0002282
:100860008A239B00C254FFF713FEF0E75A01A21837
:10087000110029310120087001390B70D386100056
:100880002B30002101709163D1639A1C52011151E8
:100890000133DBB260688342E8D3002215E05301E4
:1008A000E3181D002A35FF3500212970013D2A700B
:1008B000033529700D3529603D33FF33196013006E
:1008C0000A335B0119510132D2B29042E7D86A462D
:1008D0002300103323CB23C203CB03C26168A26879
:1008E000E368206800F070FC051E0ED1002224236E
:1008F000E25401320C4BE254E369012B0AD0236A23
:10090000012B0BD0280007B030BD0222064BE25469
:100910000125F7E7200000F02CFCF0E7200000F0B4
:1009200016FCEFE70125EDE72902000070B5040091
:100930008A239B00C35C012B01D1022070BD8A2554
:10094000AD0001234355006800F052FE206800F01E
:1009500027FC002363550020F0E710B504008A232C
:100960009B00C35C012B01D1022010BD01228A2310
:100970009B00C254006800F01DFC206800F026FEB9
:10098000002804D100228A239B00E254EDE70022D4
:100990008A239B00E2540120E7E770B504008A2314
:1009A0009B00C35C012B01D1022070BD8A25AD00E4
:1009B000012343552333C154006800F011FE002386
:1009C00063550020F1E770B5050048B200281DDB33
:1009D00007240C40640120002930FF3028182C190E
:1009E0002A34FF340026267007242140017002615A
:1009F000C3704278002A00D0C181022B11D08A2313
:100A00009B00EB5C012B0FD1022070BD07240C4032
:100A100064012000283028182C192934012626705A
:100A2000E2E700230371EAE78A24A40001232B559F
:100A30000100286800F0DEFB00232B550020E4E7CE
:100A400070B507250D406C0121002931FF31411897
:100A5000041926003D36FF3632602A000A32520160
:100A6000135082180023536022002A32FF32137081
:100A70002934FF342570002D04D0006800F0DCFD1F
:100A8000002070BD006800F0D7FDF9E770B50725BC
:100A90000D406C012100283141180419E263AA1CA1
:100AA000520113508218002353602300293301227E
:100AB0001A7028342570002D04D0006800F0BCFDA9
:100AC000002070BD006800F0B7FDF9E7F0B5C6463C
:100AD00000B50500A8E00388D44A1A40D44B13435C
:100AE0009BB2038029685023CB5A2822AA5CD200EB
:100AF0009B185B18CF4A944663441B889B059B0D4B
:100B00006B64EA6B94466344EB6300212800FFF7B3
:100B1000F1FC2423EB5C002B00D185E02B6C002B37
:100B200000D081E02422AB5C802149420B43DBB240
:100B3000CC31286843520023AB5475E05023C35A8C
:100B400094225200AA5CD2009B181B18BA4A944601
:100B500063441B889B059B0D2A002932FF32D36119
:100B60008C2189006918D28800F0C4FE2A68138895
:100B7000B2490B4080210B439BB213802800FFF742
:100B8000A1FC51E01400D288616900F0B3FE6369F2
:100B9000E2699446634463617BE03D2A06D85108CC
:100BA000D20700D50131890219808AE052099202E8
:100BB00092B29F490A431A8083E0A700C0190688B1
:100BC000B6B233B2002B00DA87E033062CD52B689F
:100BD0009C4667443B88954A1A40954B13439BB209
:100BE0003B8028685023C35A610169180A002832E3
:100BF0001278D2009B181B188E4A944663441A88B8
:100C00009205920DA31C5B01E8184260C86B8446F4
:100C10006244CA635B59002B00D01BE10C002834EE
:100C200021782800FFF766FC28684423C35A1BB2CA
:100C3000002B00DB16E14423C35A9BB20F241C4057
:100C4000BBD1DB0600D446E703889BB21A0500D56A
:100C500074E71BB2002BE7DA0388784A134080223E
:100C600013439BB2038028685023C35A9422520036
:100C7000AA5CD2009B181B186F4A944663441B88D9
:100C80009B059B0D2A002932FF32D361002B00D037
:100C900078E700212800FFF720FC2B6850229A5AA1
:100CA0009B18654A944663442A002932FF32126930
:100CB000002A00D071E71A88614911405C4A0A4352
:100CC0001A8029680A885F4B1A40C0239B015A404A
:100CD0005D4B13439BB20B80A6E70388574A134032
:100CE000802213439BB203806301EB183533FF333B
:100CF0001B78002B1FD128685033C35A6201AA18F1
:100D00002932FF321278D2009B181B184A4A9446A7
:100D100063441A889205930D984634D06301EB180A
:100D20001A002F32FF3212883D33FF3319684346D1
:100D300000F0E0FD27E028686301EB182933FF335A
:100D40001B789A008218128852044BD55022825A7E
:100D5000DB00D3181B18374A944663441A8892055F
:100D6000930D984631D16301EB182933FF331A787C
:100D700092002B689C466244138834491940344BD6
:100D80000B439BB21380414620000A3040012A18D1
:100D90005368434453606301EB183D33FF331A68D3
:100DA00042441A604359002B06D06001281839309C
:100DB000FF30006881422FD26301EB182933FF33E3
:100DC00019782800FFF789FBFFE66301EB181A008A
:100DD0003132FF3212883D33FF331968434600F049
:100DE00089FDC0E75022825ADB00D3181B18124A33
:100DF000944663441A889205930D9846B3D06301D4
:100E0000EB181A003332FF3212883D33FF33196872
:100E1000434600F06FFDA6E7610169182931FF31F3
:100E200009782800FFF70CFECFE6C0460F8FFFFFC2
:100E30000080FFFF02040000060400008F0F000086
:100E4000FF83FFFF8FBFFFFF8080FFFF8F8FFFFFBC
:100E5000C080FFFF64012C19283421782800FFF797
:100E600015FEE1E6002004BC9046F0BD70B504001C
:100E7000006800F0C7FB030400D57EE0206800F0A6
:100E8000C1FB430500D57CE0206800F0BBFB4304B8
:100E900005D5216844228B5A5B4803408B52206859
:100EA00000F0B0FB830405D5216844228B5A5748D3
:100EB00003408B52206800F0A5FBC30418D52168BD
:100EC0004023CA5A04208243CA522168CA5A0430B5
:100ED0008243CA5298239B00E35C012B5FD0200021
:100EE000FFF73EFB216844228B5A494803408B524E
:100EF000206800F087FB03055AD4206800F082FBCD
:100F0000030629D5216844228B5A802083438B52C3
:100F100098239B00E35C002B00D066E02168043A34
:100F20008B5A042003439BB28B5221688B5A0820B2
:100F300003439BB28B523F3A98239B00E2545423C5
:100F40002268D25A9208183B134099229200A3506B
:100F50000121200000F022F9206800F053FB8305F6
:100F600047D4206800F04EFBC30505D52168442214
:100F70008B5A284803408B5270BD2000FFF7A6FD16
:100F80007CE7216844228B5A234803408B5220007F
:100F9000FFF7C2FA00212000FFF7FFFC74E70022F0
:100FA00098239B00E2540021200000F0F7F896E718
:100FB000216840228B5A082003439BB28B52206841
:100FC0004421435A154D2B40435221688B5A04202B
:100FD00003439BB28B52206800F014FBC30400D57E
:100FE0008BE72000FFF7AAFA87E72000FFF7A6FAB1
:100FF000B2E7216844228B5A094803408B522000F3
:10100000FFF783FAADE7C046FFBFFFFFFFDFFFFF3B
:10101000FFEFFFFFFFFEFFFFFFFBFFFFFFF7FFFFFD
:10102000FFFDFFFF70B5050007240C4043689C429C
:1010300037D84BB2002B14DB49010A002932FF32AA
:10104000821841180B002A33FF3300211970012345
:10105000937014708A239B00EB5C012B0AD1022051
:1010600070BD63011A0028328218C3182933012188
:101070001970ECE701218A239B00E95411002868CC
:1010800000F036FA002C05D000228A239B00EA5497
:101090000020E5E78C239B00E918286800F0B6FAE9
:1010A000F2E70120DCE770B504000F230B40426833
:1010B000934231D84BB2002B17DB07230B405B0167
:1010C0001A002932FF328218C3182A33FF33002056
:1010D0001870002393700733194011708A239B0006
:1010E000E35C012B0CD1022070BD07230B405B0198
:1010F0001A0028328218C318293301201870E8E733
:101100008A25AD00012363551100206800F016FA0E
:10111000002363550020E7E70120E5E710B50C0642
:101120000DD507242140490128314018002A0BD051
:101130000122027303811B0C4381002010BD490171
:101140002931FF314018F1E70273C380F5E70168E8
:1011500001229B239B00C25057328B5A012003432C
:101160009BB28B528B5A022003439BB28B520020BE
:101170007047016801229A239B00C2500022083B5D
:10118000C25454328B5A012003439BB28B528B5A68
:10119000022003439BB28B5200207047704700002F
:1011A0004022835A02490B439BB28352002070476E
:1011B00080BFFFFF4022835A02490B408352002028
:1011C0007047C0467F40000084B010B50391049280
:1011D0000593402201238352002383520432835219
:1011E0000C328352FFF7DCFF002010BC08BC04B0B7
:1011F00018470000F0B50D78AD0045192B88B04AAE
:101200001340CA78012A55D0002A49D0022A03D0B7
:10121000032A4AD0012400E00024AA4A13439BB2C7
:101220002B800B789E00861935882DB2A64F3D4045
:101230002B439BB21A4392B232800B7B002B00D01F
:1012400092E04B78002B45D05023C35AC3180A783C
:10125000D2009B188022D20094466344CA8801259C
:10126000AA431A800B789B00C3181A88520606D529
:101270001A883D001540954A2A4392B21A80CB78CD
:10128000012B1CD00B789B00C0180388904A134098
:10129000202253409BB28B4A13439BB2038051E000
:1012A0008022920013430024B7E7C022D2001343E8
:1012B0000024B2E78022D20013430024ADE70B786C
:1012C0009B00C0180388824A1A407E4B13439BB28E
:1012D000038037E05025435BC3180A78D2009B187F
:1012E0007C4A94466344CA880126B2431A80435B11
:1012F000C3180A78D2009B18774A944663440A6957
:10130000002A21D11A88754D1540754A2A431A8042
:101310000B789B00C3181A88520406D51A886A4DA8
:101320001540704A2A4392B21A800B789B00C0186D
:1013300002886D4B1A40C0239B015A40614B1343F6
:101340009BB203802000F0BD3D2A06D85508D20785
:1013500000D50135AD021D80DAE75209920292B242
:101360005F4D2A431A80D3E70B789B00C3181A8875
:10137000554D15405D4A2A4392B21A805026835B30
:10138000C3180A78D2009B188022D2009446634486
:101390000A890125AA431A80835BC3180A78D20000
:1013A0009B184C4A944663444A89AA431A804B7856
:1013B000002B3AD10B789B00C3181A88520406D52B
:1013C0001A88414D1540474A2A4392B21A800B7839
:1013D0009B00C3181A88520606D51A883A4D154044
:1013E0003A4A2A4392B21A800B789B00C3181A8893
:1013F000354D1540354A2A4392B21A800A78920038
:1014000082181388384D1D40C0239B016B402D4D21
:101410002B439BB213800B789B00C01803882C4A87
:1014200013402B439BB203808CE70B789B00C318BF
:101430001A88520406D51A88234D1540294A2A4392
:1014400092B21A800B789B00C3181A88520606D5F0
:101450001A881D4D15401D4A2A4392B21A800B78F6
:101460009B00C3181A88184D15401E4A2A4392B291
:101470001A80CB78012B17D00A7892008218138833
:10148000134D2B4020256B409BB20E4D2B439BB23E
:1014900013800B789B00C3181A8813491140094A1E
:1014A0000A4392B21A804DE70B789B00C3181A8842
:1014B000074D1540034A2A4392B21A80E9E7C04615
:1014C0008F89FFFF8080FFFF8F8FFFFFC080FFFFAE
:1014D000BF8FFFFF0404000006040000FF83FFFF2E
:1014E0000080FFFF80C0FFFF8FBFFFFF8081FFFFF5
:1014F0004B78002B0ED10B789B00C01802880C4B48
:101500001A4080235B015A400A4B13439BB203806D
:10151000002070470B789B00C0180388064A1340D0
:10152000102253409BB2034A13439BB20380EFE760
:101530008FBFFFFF8080FFFFBF8FFFFF10B54B788D
:10154000002B1BD00B789B00C3181A88520606D5B7
:101550001A88184C1440184A224392B21A800B7809
:101560009B00C0180388154A1340302253409BB299
:10157000134A13439BB20380002010BD0B789B00DD
:10158000C3181A88520406D51A880A4C14400D4A0A
:10159000224392B21A800B789B00C01802880A4B33
:1015A0001A40C0239B015A40054B13439BB2038052
:1015B000E2E7C0468F8FFFFFC080FFFFBF8FFFFFB6
:1015C0008080FFFF80C0FFFF8FBFFFFF402301220D
:1015D000C252002143328152413AC2520020704728
:1015E000002902D180224C23C25200207047000003
:1015F0005822835A02490B439BB283520020704702
:101600000080FFFF4423C05A80B27047002070471B
:1016100010B501335B0880188022D200841807E0DF
:101620000A78487800020243228002340231013BEA
:10163000002BF5D110BD000070B505000C004978F5
:1016400001292BD0A26923699A4200D8D3E0D21A8B
:10165000A261227B002A00D0E1E05032AA5AAA18E7
:101660002178C900521899498C466244002B00D059
:10167000C5E0138896491940964B0B431380237895
:101680009B00ED182A88944B1A40C0239B015A40B6
:10169000924B13439BB22B80002070BDA26923693B
:1016A0009A421DD9D21AA261227B002A1CD022782C
:1016B000900028180088400662D5002936D15031A4
:1016C000695A6918D2008A1880498C466244002BF6
:1016D0001CD111887E4808407E49014311802EE0CC
:1016E0000023A3611300DFE79EB2E2883300616943
:1016F0002800FFF78DFF5023EB5AEB182278D20019
:101700009B18774A944663441E802BE03D2B06D8F5
:101710005908D80700D50131890211800FE0590915
:10172000890289B26B480143118008E05021695A4F
:101730006918D2008A1865498C4662441380628910
:101740009BB261692800FFF763FF6378002B45D1E6
:1017500023789B00EB181A8862491140624A0A43B9
:1017600092B21A8023789B00ED182B885F4A1340B1
:10177000302253409BB2594A13439BB22B808BE7D4
:10178000002920D15031695A6918D2008A18544969
:101790008C466244002B06D111884D4808404D49C3
:1017A0000143118018E03D2B06D85908D80700D511
:1017B0000131890211800FE05909890289B2454837
:1017C0000143118008E05021695A6918D2008A1833
:1017D00043498C46624413802289B1E7012BC1D171
:1017E00023789B00EB181A883E491140404A0A436F
:1017F00092B21A80B6E70023A361130029E73D2BBC
:1018000006D85908DB0700D501318902118036E777
:101810005B099B029BB22F490B4313802FE70029E2
:1018200010D15022AA5AAA182178C90052182C495E
:101830008C466244002B1AD111882548084025495E
:10184000014311806278002A31D15032AA5AAA1875
:101850002178C90052181D498C466244002B16D1CC
:1018600013881B4919401B4B0B43138007E73D2B83
:1018700006D85908D80700D5013189021180E1E75F
:101880005909890289B2134801431180DAE73D2BD7
:1018900006D85908DB0700D5013189021180EEE630
:1018A0005B099B029BB20B490B431380E7E6012ABD
:1018B00000D0E4E64F32AA5AAA182178C90052187B
:1018C00002498C4662441380D9E6C04606040000F3
:1018D000FF83FFFF0080FFFF8FBFFFFF8080FFFFC0
:1018E000020400008F8FFFFFC080FFFFBF8FFFFF4C
:1018F00080C0FFFF10B55C0880188022D20094469B
:10190000604406E0028802300A70120A4A7002310E
:10191000013C002CF6D1DB0701D503780B7010BD1C
:1019200010B50400094B1868FA218900FEF790FCF5
:1019300000F066FD002801D0012010BD002221002A
:10194000013800F021FD0020F7E7C0466C000020C0
:1019500010B5084A136840210B4313600020FFF7BD
:10196000DFFF041E02D00124200010BDFEF758FF47
:10197000FAE7C04600200240024A136801331360B0
:101980007047C046240D0020014B18687047C046C0
:10199000240D002070B50400FFF7F6FF0500631C5E
:1019A00000D00134FFF7F0FF401B8442FAD870BD2D
:1019B00010B51F4BD9680C230B40082B33D00C2BD0
:1019C00011D0042B09D01A4B5A68520B072313402D
:1019D000013380200002984010BD154B1B68DB06C8
:1019E00023D51448F8E78A0C0F231340124AD05C21
:1019F000890D0323194001310D4BDB68DB0308D44B
:101A00000B4B1B68DB0609D50A4B5843FEF720FC3D
:101A1000E2E70A4B5843FEF71BFCDDE7084B58434F
:101A2000FEF716FCD8E70548D6E70548D4E7C046D8
:101A30000010024000093D00BC38000800127A0086
:101A40000024F400F0B583B0041E00D19CE2B24B38
:101A5000DA680C251540DE6880235B021E400368AF
:101A6000DB0736D5082D2CD00C2D28D063688022BA
:101A70005202934255D0A022D202934258D0A64B94
:101A80001A68A6490A401A601A68802149020A4069
:101A90000192019A1A68A2490A401A606368002BF1
:101AA00052D0FFF771FF07009B4B1B689B0310D4BC
:101AB000FFF76AFFC01B6428F6D9032065E2002EF9
:101AC000D4D0954B1B689B0303D56368002B00D1D2
:101AD0005DE223689B076CD5E3689A0605D58E48BE
:101AE000026820210A4302608B43042D3CD00C2D58
:101AF00038D0002B00D1B0E087490A680920824322
:101B000013430B60FFF740FF0600834B1B685B0726
:101B100000D599E0FFF738FF801B0228F5D9032094
:101B200033E27D4A116880235B020B431360B5E703
:101B3000794B19688022D2020A431A601968802200
:101B400052020A431A60A9E7FFF71EFF0700724B13
:101B50001B689B03BDD5FFF717FFC01B6428F6D990
:101B6000032012E2002EC4D16B4A1268520702D53C
:101B7000002B00D10DE2684E72686A490A40216963
:101B800009020A437260326809218A4313433360B1
:101B9000FFF70EFFF26812090F231340624AD35C6D
:101BA000D840624B18600020FFF7BAFE002800D032
:101BB000EBE12368DB062CD5002D61D1564B1B6869
:101BC0009B0503D5E369002B00D1E4E1524A536839
:101BD00057490B40616A0B43536053681B021B0A51
:101BE000216A09060B435360636A590B0131802354
:101BF0001B028B40D16809090F220A404A498A5CBE
:101C0000D3404A4A13600020FFF78AFE002800D024
:101C1000BBE123681B0700D48EE06369002B68D00A
:101C20003D4A136D01210B431365FFF7ADFE06001E
:101C3000394B1B6D9B0700D57EE0FFF7A5FE801B8F
:101C40000228F5D90320A0E133494B68354A1340F7
:101C50002269120213434B60ABE72F4A136801213C
:101C60008B431360FFF790FE06002B4B1B685B074E
:101C70009FD5FFF789FE801B0228F6D9032084E157
:101C8000E369002B22D0244A116880235B000B43B8
:101C90001360FFF779FE06001F4B1B689B0506D4F7
:101CA000FFF772FE801B0228F6D903206DE11A4A65
:101CB00053681F490B40616A0B43536053681B0212
:101CC0001B0A216A09060B435360A2E7124A1368F4
:101CD00018490B401360FFF757FE06000E4B1B68B8
:101CE0009B0596D5FFF750FE801B0228F6D90320EE
:101CF0004BE1094A136D01218B431365FFF744FE45
:101D00000600054B1B6D9B0716D5FFF73DFE801B9C
:101D10000228F6D9032038E100100240FFFFFEFF41
:101D2000FFFFFBFFFFE0FFFFAC3800086C00002066
:101D3000FF1FFFFFFFFEFFFF23685B0778D59A4B6D
:101D40009B6BDB002CD4984A916B80235B050B4383
:101D500093630126954B1B68DB0523D5A36880227E
:101D60005200934232D0002B37D18F4B1A6D9049DD
:101D70000A401A651A6D8F490A401A65A368002B3C
:101D800045D0FFF701FE0700874B1B6D9B054DD427
:101D9000FFF7FAFDC01B884B9842F5D90320F4E009
:101DA0000026D7E7814A116880235B000B4313604C
:101DB000FFF7EAFD07007D4B1B68DB05CED4FFF77C
:101DC000E3FDC01B6428F6D90320DEE0764A116DDE
:101DD00080235B000B431365D0E7A022D20093421F
:101DE00009D0714B1A6D72490A401A651A6D714912
:101DF0000A401A65C2E76C4B196D013AFF3A0A4373
:101E00001A65196D802252000A431A65B6E7FFF77A
:101E1000BBFD0700644B1B6D9B0507D5FFF7B4FDA9
:101E2000C01B654B9842F5D90320AEE0012E21D0AE
:101E300023689B063CD5A369002B21D05A4B996897
:101E40000120014399605A6B02435A635B4A116A4D
:101E500080239B010B431362FFF796FD0600524B54
:101E60009B689B0724D4FFF78FFD801B0228F6D9BF
:101E700003208AE04C4A936B51490B409363D7E7A8
:101E8000494A936801218B4393604C4A136A4D4938
:101E90000B401362FFF778FD0600434B9B689B07DE
:101EA00006D5FFF771FD801B0228F6D903206CE0F0
:101EB000A36A002B00D170E00C2D49D0022B12D068
:101EC000394A136840490B401360FFF75DFD040079
:101ED000354B1B689B0139D5FFF756FD001B0228C7
:101EE000F6D9032051E0304A136837490B4013609C
:101EF000FFF74AFD05002C4B1B689B0106D5FFF739
:101F000043FD401B0228F6D903203EE02649CB685A
:101F10002E4A1340E26A206B0243606B0243134374
:101F2000CB600A6880235B0413430B60FFF72CFD32
:101F300004001D4B1B689B0106D4FFF725FD001B09
:101F40000228F6D9032020E000201EE000201CE03B
:101F5000012B24D0144BDA6880235B021340E16A22
:101F60008B4201D0012010E0F0239B031340216B32
:101F70008B4201D0012008E0C0231B041A40636B90
:101F80009A420ED0012000E0012003B0F0BD0120F4
:101F9000FBE70120F9E70120F7E70020F5E7012042
:101FA000F3E70020F1E7C046001002400070004057
:101FB000FFFEFFFFFFFBFFFF881300000000014052
:101FC000FFFFFFEFFFDFFFFFFFFFFFFEFFFF02FF4F
:101FD00070B504000D00002800D1BAE05F4B1A680C
:101FE000012313408B420BD25C490B6801229343BF
:101FF0002B430B600B681A40954201D00120A7E0EB
:1020000023689B0706D5564AD368F0218B43A16805
:102010000B43D3602368DB0764D56368022B25D0AC
:10202000032B29D0012B2DD04D4A1268920500D4E4
:1020300091E04B49CA68032082431343CB60FFF70A
:10204000A3FC06006368022B22D0032B2ED0012BA9
:102050003AD0434BDB680C221A4243D0FFF794FC82
:10206000801B404B9842F4D9032071E03C4A12682F
:102070009203DED401206BE0394A12689201D8D471
:10208000012065E0364A12685207D2D401205FE091
:10209000334BDA680C231340082B23D0FFF774FC72
:1020A000801B304B9842F3D9032051E02C4BDA6867
:1020B0000C2313400C2B15D0FFF766FC801B294B1B
:1020C0009842F3D9032043E0254BDA680C231340F0
:1020D000042B07D0FFF758FC801B224B9842F3D902
:1020E000032035E01D4B1A68012313409D420BD29B
:1020F0001A490B68012293432B430B600B681A406B
:10210000954201D0012023E023685B0706D5144ADD
:10211000D36815490B40E1680B43D36023681B0764
:1021200007D50F49CB68114A13402269D2001343E7
:10213000CB60FFF73DFC0A4BDA6812090F2313400E
:102140000B4AD35CD8400B4B18600020FFF7E8FB2C
:1021500070BD0120FCE70120FAE7C04600200240E4
:102160000010024088130000FFF8FFFFFFC7FFFFC9
:10217000AC3800086C00002070B5040082231B01FD
:1021800002681A425AD0754B9B6BDB0000D59DE06C
:10219000724A916B80235B050B4393630125704B5F
:1021A0001B68DB0500D493E06C4B1A68C0239B03CB
:1021B0001A4061680B409A4200D19EE0C0239B0206
:1021C0000A001A409A4200D19FE0644B1B6DC02266
:1021D000920213401FD011408B4202D02268920617
:1021E00008D4C0229202A1680A40934213D0236807
:1021F0001B0510D5594B186D5A4A02401E6D80219F
:10220000090331431965196D574E314019651A6537
:10221000C30500D580E06268C0239B02110019400D
:10222000994200D188E04D490B6DC022920260684E
:10223000024013430B65012D00D187E02368DB07C3
:1022400006D5464AD36C03218B43E1680B43D36424
:1022500023689B0706D5414AD36C0C218B43216927
:102260000B43D36423685B0706D53C4AD36C3F49D4
:102270000B4061690B43D36423681B0706D5374ABB
:10228000D36C3B490B40A1690B43D3642368DB0546
:1022900006D5324AD36C33490B40E1690B43D36412
:1022A00023685B0606D52D4AD36C32490B40616A20
:1022B0000B43D36423681B064ED5284AD36C2E49A2
:1022C0000B40216A0B43D364002070BD002566E7F4
:1022D000234A116880235B000B431360FFF754FB14
:1022E00006001F4B1B68DB0500D55DE7FFF74CFBC5
:1022F000801B6428F5D90320E7E7C0239B03A0686F
:1023000003409A4200D059E75FE7144B1B689B03D8
:1023100000D45AE70120D8E7FFF736FB06000F4B41
:102320001B6D9B0500D576E7FFF72EFB801B134B3B
:102330009842F4D90320C8E708490B6810480340C5
:10234000C020800302401A430A606CE70A008B6BCE
:102350000C490B40936371E70020B6E70010024080
:1023600000700040FFFFFCFFFFFFF7FFFFF3FFFFE0
:10237000FFCFFFFFFFFFFFFBFFFFF3FF881300000E
:10238000FFFFCFFFFFFFFFEF70B5002811DB8308D1
:10239000144DC0339B005C5903221040C000FC3236
:1023A00016008640B44389010A40824022435A51B4
:1023B00070BDC0B20F230340083B9B0806339B004F
:1023C000094A944663445D6803221040C000FF241C
:1023D00022008240954389010C4084402C435C607C
:1023E000E6E7C04600E100E000ED00E01F231840F2
:1023F0001E3B8340014A13607047C04600E100E085
:1024000001380A4B98420FD8094A50600948036ABC
:102410001B021B0AC02109060B43036200239360C1
:1024200007331360002070470120FCE7FFFFFF0027
:1024300010E000E000ED00E0104B1968802252002F
:102440000A431A60DA680E490A40DA601A680D49D0
:102450000A401A609A6801218A439A601A680A49F8
:102460000A401A60DA6809490A40DA6000221A61F3
:1024700080221205064B9A607047C0460010024049
:102480000C40FF88F6FFF6FEFFFFFBFFFFFF02FF99
:1024900000ED00E010B5002816D0A3239B00C35820
:1024A000002B03D00024A3239B00C450002902D09A
:1024B000A2239B00C15001219D239B00C1540270A7
:1024C000FEF764F8002010BD0220FCE7002904D0CC
:1024D000A3239B00C150002070470220FCE710B5E9
:1024E000FEF782F8002010BD10B50400A3239B0066
:1024F000C3585B68017998472000FEF77EF80020FA
:1025000010BD10B5A3239B00C358002B05D01B683A
:102510009847002803D0022000E0022010BD0020D0
:10252000FCE710B5A3239B00C3585B6898470020C5
:1025300010BD000070B50400A0239B00C518280042
:1025400000F062F901229B239B00E250114BE25AFA
:10255000163BE2501033E15C1F230B40012B0FD0E0
:10256000002B07D0022B10D07F2399432000FEF7C9
:1025700059F803E02900200000F000FB002070BDA6
:102580002900200000F030FBF8E72900200000F0CF
:102590005FFBF3E78602000010B50400100000297D
:1025A0003CD19B239B00E358032B03D0052B2BD05E
:1025B00000203FE022004132FF32D368126993428B
:1025C0000FD99B1A21004131FF31CB609A4206D9C5
:1025D0009AB20100200000F090FC00202AE092B2A4
:1025E000F7E7A3239B00E3581B69002B04D09D222F
:1025F0009200A25C032A04D0200000F086FC002098
:1026000018E020009847F7E700229B239B00E25048
:1026100000212000FEF706F800200BE0A3239B001A
:10262000E3589B69002B0AD09D229200A25C032AEA
:1026300001D0022010BD200098470020FAE70220B8
:10264000F8E770B50400100000295DD19B239B00C2
:10265000E358022B0ED0042B01D0002B03D1802194
:102660002000FDF7DFFF9E239B00E35C012B45D09C
:10267000002070BD226A656AAA4220D8E669290056
:102680003000FDF76BFE002906D1B54204D89C232B
:102690009B00E3589E4220D3A3239B00E358DB68B2
:1026A000002B04D09D229200A25C032A23D080211B
:1026B0002000FDF7B7FF200000F033FCD3E7521BEA
:1026C000226292B20100200000F0FEFB00230022F3
:1026D00000212000FDF7E0FFC5E70022200000F008
:1026E000F3FB00229C239B00E250002300212000EA
:1026F000FDF7D2FFB7E720009847D8E700229E23D6
:102700009B00E2540020B4E7A3239B00E3585B69DD
:10271000002B0AD09D229200A25C032A01D0022045
:10272000A7E7200098470020A3E70220A1E770B5A3
:102730000400402300220021FDF768FF0125A223A9
:102740005B00E55040260C33E650113BFF3B002276
:1027500080212000FDF75AFFA56166629D239B0042
:10276000E55400239B229200A35063601032A350D3
:10277000A4239B00E358002B06D0A3239B00E3581F
:102780005B68002120009847002070BD0174002084
:10279000704700009D239B00C15C034A81540422C2
:1027A000C25400207047C04675020000024BC25C54
:1027B000013BC254002070477502000010B59D23F4
:1027C0009B00C35C032B01D0002010BDA3239B0002
:1027D000C358DB69002BF7D09847F5E703000020CA
:1027E00002E00130C0B201331A78002AF9D17047F3
:1027F00010B54B88012B00D010BD01229F239B00F8
:10280000C25000F082FBF7E70B7803704B784370FF
:102810008B78CA7812029B1843800B794A7912028E
:102820009B1883808B79CA7912029B18C3807047EA
:1028300010B504008021FDF7F5FE00212000FDF712
:10284000F1FE10BD30B583B005000C0049880B0ABD
:10285000072B00D996E09B00554AD3589F46A223E8
:102860009B00C3581B68007C6A46911D98476B46C5
:1028700006331B88002B03D0E288002A00D086E0B4
:10288000E388002B00D18EE003B030BD037C002B29
:1028900009D1A3239B00C3589B6A6A46901D9847A1
:1028A00002234370E3E7A3239B00C358DB6A6A4615
:1028B000901D984702234370D9E7C9B2052939D83A
:1028C00089003C4B5B589F46A2239B00C3585B6822
:1028D000007C6A46911D9847C9E7A2239B00C35814
:1028E0009B68007C6A46911D9847C0E7A2239B0025
:1028F000C358DB68007C6A46911D9847B7E7A2235E
:102900009B00C3581B69007C6A46911D9847AEE73F
:10291000A2239B00C3585B69007C6A46911D9847BF
:10292000A5E7A2239B00C3589B69007C6A46911DC2
:1029300098479CE7A3239B00C3589B6B6A460632CB
:10294000984794E7037C002B07D1A3239B00C3582F
:102950005B6B6A46901D984789E72100FFF768FF87
:1029600092E7037C002B09D1A3239B00C3581B6B68
:102970006A46901D98470723437078E72100FFF7C8
:1029800057FF81E721002800FFF752FF7CE7191C61
:10299000934200D9111C8AB26B46D98001002800ED
:1029A00000F084FA6CE7280000F0AFFA6CE7C0464C
:1029B000C8380008E838000870B504008B88002B80
:1029C00023D1CB88002B20D14B887F2B1DD87F258E
:1029D0001D409D239B00C35C032B0ED00D4BC554A3
:1029E0002900FDF747FE200000F08FFA002D07D0E8
:1029F00002229D239B00E2540AE0FFF719FF07E043
:102A000001229D239B00E25402E02000FFF710FF0B
:102A100070BDC0467602000070B504000D008978D4
:102A20002A4B197001290FD89D239B00C35C022BF0
:102A30000ED0032B23D02900FFF7FAFE234B197881
:102A40002000FFF76EFD02E02900FFF7F1FE70BDE8
:102A5000002911D0416003229D239B00C254FFF73F
:102A600050FD022803D0200000F04FFAEFE72900C4
:102A70002000FFF7DDFEEAE700F047FAE7E700296C
:102A800011D0436899421ED0D9B2FFF74AFD0F4BCF
:102A9000197861602000FFF734FD02280ED0200075
:102AA00000F033FAD3E702229D239B00C254416019
:102AB000FFF737FD200000F028FAC8E729002000C2
:102AC000FFF7B6FEC3E700F020FAC0E710050020CC
:102AD00010B5CB88012B0DD19D239B00C35C002B2F
:102AE00013D0022B09D9032B0FD1011D012200F0B5
:102AF000DDF901E0FFF79CFE10BD002383600100BB
:102B00000831012200F0D2F9F6E7FFF791FEF3E772
:102B100010B59D239B00C35C013BDBB2022B14D894
:102B2000CB88022B0ED10123C3609F239B00C35887
:102B3000002B01D00323C36001000C31022200F0FE
:102B4000B5F910BDFFF774FEFBE7FFF771FEF8E77C
:102B500010B59D239B00C35C013BDBB2022B0AD85E
:102B60004B88012B00D010BD00229F239B00C25038
:102B700000F0CBF9F7E7FFF75BFEF4E710B50A7852
:102B800060231340202B06D0402B04D0002B09D00B
:102B9000FFF74EFE04E0A3239B00C3589B689847B1
:102BA000002010BD4B78092B18D89B000D4AD35834
:102BB0009F46FFF747FEF3E7FFF7FEFEF0E7FFF75C
:102BC0002BFFEDE7FFF784FFEAE7FFF7A1FFE7E759
:102BD000FFF70EFEE4E7FFF7BBFFE1E7FFF728FE94
:102BE000DEE7C0460039000870B504000D000A7821
:102BF00060231340202B06D0402B04D0002B02D0A2
:102C0000FFF716FE0DE09D239B00E35C013BDBB26A
:102C1000022B18D82B79012B05D929002000FFF7AA
:102C200007FE002070BDA3239B00E3589B6829008A
:102C300020009847EB88002BF3D10028F1D1200029
:102C400000F063F9EDE729002000FFF7F1FDE8E768
:102C500070B504008A88D5B2087860230340202B21
:102C600008D0402B06D0002B0CD02000FFF7E0FD51
:102C7000002006E0A3239B00E3589B6820009847B0
:102C8000002070BD202B13D04B78012B3ED0002BA1
:102C90006BD0032B00D0E5E09D239B00E35C022B6F
:102CA0000DD0032B1ED02000FFF7C2FD0020E8E767
:102CB000A3239B00E3589B6820009847E1E7002D81
:102CC0000BD0802D09D029002000FDF7ABFC80211E
:102CD0002000FDF7A7FC0020D3E72000FFF7A8FDA8
:102CE0000020CEE74B88002B06D1002D04D0802D8C
:102CF00002D0CB88002B04D0200000F006F9002081
:102D0000BFE729002000FDF78DFCF5E79D239B0020
:102D1000E35C022B06D0032B17D02000FFF788FDC1
:102D20000020AEE7002D0BD0802D09D02900200017
:102D3000FDF778FC80212000FDF774FC0020A0E75F
:102D40002000FFF775FD00209BE74B88002B00D08B
:102D50008DE06B0604D1200000F0D7F8002090E74A
:102D600029002000FDF767FCF5E79D239B00E35C4D
:102D7000022B06D0032B28D02000FFF759FD00209E
:102D80007FE7002D01D0802D11D1130614D47F21AF
:102D900029408D006D18A9004131FF3161180023D1
:102DA0000B600222200000F081F8002069E720007B
:102DB000FFF73EFD002064E77F2129408D006D185C
:102DC000A900103161180431E9E752B2002A21DB71
:102DD0000F232B409800C0188300E3184533FF33BE
:102DE0001B68002B24D0002A27DB7F222A40930077
:102DF0009B189E004136FF36A619002D26D0802D47
:102E000024D029002000FDF71FFC002827D0012333
:102E100033601DE00F232B409800C0188300E31897
:102E20009B69002BDFD12000FFF702FD002028E77F
:102E30002000FFF7FDFC002023E77F232B409A00B2
:102E4000D21893001033E3181E1DD6E70023336019
:102E500002223100200000F029F8002011E70023B1
:102E60003360F5E72000FFF7E3FC002009E70020CE
:102E700007E770B504000D001600002815D0FFF715
:102E8000ADFC013040003080287003236B70013BA3
:102E900008E05A1CD2B20134E9540233DBB2AA185A
:102EA0000021117021780029F3D170BD10B51300F5
:102EB00002249B2292008450C36103620A00002115
:102EC000FDF7E1FB002010BD10B513000A00002142
:102ED000FDF7D9FB002010BD10B5130003249B2281
:102EE00092008450253AFF3A8350043283500A00FE
:102EF0000021FDF7D1FB002010BD10B513000A0022
:102F00000021FDF7C9FB002010BD10B504229B2352
:102F10009B00C250002300220021FDF7B4FB0020DB
:102F200010BD10B505229B239B00C2500023002238
:102F30000021FDF7B1FB002010BD00001B23038022
:102F400000487047AC000020002070470020704708
:102F50000020704700207047002070470020704715
:102F60000A23038000487047C8000020A4239B0068
:102F7000C3588322D2009A5C0A2A12D00A218322E3
:102F8000D20099540E20083A985400220E481A5440
:102F90000E481A540E481A540E4819540E495A54E1
:102FA000704702218322D200995400228220C0005F
:102FB0001A5405481A5405481A5405481A54054825
:102FC000195405495A54EBE711040000120400009B
:102FD000130400001404000015040000A4239B0047
:102FE000C3588322D200995C8A1ED2B2012A05D925
:102FF000052903D0062901D0092915D102218322F0
:10300000D200995400228220C0001A5407481A5452
:1030100007481A5407481A540748195407495A547C
:1030200015395A5006495A507047C04611040000DD
:103030001204000013040000140400001504000032
:103040000404000010B5062909D8A5239B00C35825
:103050001868044C2100FFF70CFF200010BD002071
:10306000FCE7C0461405002010B50400A4239B0013
:10307000C3580021184A9954184A127D52070DD599
:1030800006318322D2009954002215481A5415485B
:103090001A5415481A54154A995410BD0821832210
:1030A000D200995400220E481A540E481A540E4861
:1030B0001A540E4A99542000FFF716FAA5239B00D4
:1030C000E3589B689847BFF34F8F094A094BDA6072
:1030D000BFF34F8FC046FDE719040000AC0000208D
:1030E0001104000012040000130400001404000086
:1030F0000400FA0500ED00E010B582B0A4239B00A7
:10310000C4588933FF33E35C042B05D0072B00D16F
:1031100074E0002002B010BD8023DB00E1580029DC
:1031200056D12378002B03D1364AA258012A0FD05A
:10313000212B20D0412B30D00023324AA350043A17
:10314000A3506A4613700133D3806946FFF770FBC2
:1031500000232C4AA350043AA35003228321C90020
:103160006254294963542949635429496354294BBA
:10317000E2540020CEE7234AA258052ADAD1637828
:10318000A27812029B18E27812049B182279120688
:103190009B188122D200A350DAE71A4BE358052B83
:1031A000CAD16378A27812029B18E27812049B18A5
:1031B000227912069B188122D200A350753AFF3A59
:1031C0008258D268180090470028C1D00220A1E799
:1031D0000129BDD9104B9C46614489028123DB0043
:1031E000E358C918A5239B00C3581B69054AA25878
:1031F000200098470028ABD002208BE7FFF734FF70
:10320000002087E7040400001104000012040000FD
:103210001304000014040000FEFF3F0070B5050019
:10322000A4239B00C458CB88002B68D08323DB00E9
:10323000E35C022B01D0092B59D148888023DB00A5
:10324000E050CA88354BE25000281BD1032A17D81A
:1032500009228323DB00E2540023314963543149BE
:10326000635431496354314962542370213363708C
:103270002033A370032221002800FFF717FE4BE044
:103280000222E6E7012821D909218323DB00E1544A
:103290000023234EA355234EA355234EA355234B62
:1032A000E154234B9C46604480028123DB00E358B9
:1032B000C018A5239B00EB585B69210098470100CB
:1032C000164BE25A2800FFF7F1FD25E00F22832379
:1032D000DB00E254002312482354124823541248BE
:1032E0002354124BE2542800FFF7A2FA14E0002303
:1032F0000A4AA350043AA350FFF79AFA0CE00222BC
:103300008323DB00E25400230549635405496354D9
:1033100005496354054BE25470BDC04604040000E7
:103320001104000012040000130400001404000043
:10333000FEFF3F0070B50500A4239B00C4588933ED
:10334000FF33E35C032B09D0062B46D08223DB003E
:10335000E11806222800FFF7A9FD70BD324BE358A3
:10336000002B2CD004228323DB00E25400232F49BE
:1033700063542F4963542F4963542F4BE254143B39
:10338000E358002B02D12378412B0CD0A5239B00BE
:10339000EB589B698222D200A2188121C900605893
:1033A00001219847D2E7A5239B00C3589B6982223D
:1033B000D200A2180B39605800219847C6E70522B1
:1033C0008323DB00E25400231849635418496354F3
:1033D00018496354184BE254B8E7184BE35C012BCF
:1033E00013D0002BB2D1164B1B7D5B07AED502224A
:1033F0008323DB00E25400230C4963540C496354DB
:103400000C4963540C4BE254A0E706338322D200EC
:10341000A3540121054AA1540022054962540549DB
:103420006254054AA35491E704040000110400000B
:10343000120400001304000014040000190400002A
:10344000AC00002010B5A4239B00C1588933FF3382
:103450009C4661440122FFF729FD10BD10B5A4234D
:103460009B00C358CA88002A1AD08322D2009A5CD3
:10347000022A04D0052A02D0FFF7DAF90FE04C88BF
:103480008022D2009C50CA8812495A5003218324BA
:10349000E4001955104C19551900FFF71DFD10BD1A
:1034A0008322D2009A5C052A04D0022A02D0FFF7B8
:1034B000BFF9F4E70121094A99540531013A9954B9
:1034C000002207481A5407481A5407481A54024A57
:1034D0009954E4E7040400001404000019040000F7
:1034E00011040000120400001304000070B5040071
:1034F000A4239B00C3588322D200985C821ED2B2C0
:10350000012A05D9052803D0062801D0092815D19C
:1035100002208322D200985400228225ED005A55C1
:103520000E4D5A550E4D5A550E4D5A550E4D585575
:103530000E481A5415381A500D481A500D4B5B7D21
:10354000DB0603D44888FEF725FA70BD2000FEF79D
:10355000CBFF2000FEF7C3FFF7E7C04611040000D1
:1035600012040000130400001404000015040000FD
:1035700004040000AC00002010B582B000226B46AD
:10358000DA80A4239B00C4580A786023134028D013
:10359000202B7BD14B78062B1FD89B003E4AD3585B
:1035A0009F46FFF75BFF002073E0FFF737FE002028
:1035B0006FE0FFF7BFFE00206BE0FFF7D7FC0020B5
:1035C00067E0FFF73FFF002063E0FFF707FD002003
:1035D0005FE0FFF78BFF00205BE0FFF729F9022097
:1035E00057E04B78062B22D00FD90A2B32D00B2B69
:1035F00048D18B78002B41D19D229200825C032A16
:1036000038D0FFF715F9022043E0002B3AD19D2373
:103610009B00C35C032B03D0FFF70AF9022038E0BC
:1036200002226B46991DFFF741FC002031E04B88D8
:103630001B0A212B05D000220021FFF737FC0020B8
:1036400027E0CB881A1C092B00D9092292B2134912
:103650001231F2E79D239B00C35C032B03D0FFF7DD
:10366000E7F8022015E00E4BE1180122FFF71EFCDF
:1036700000200EE00A4AA35000200AE0FFF7D8F825
:10368000022006E0FFF7D4F8022002E0FFF7D0F8AE
:10369000022002B010BDC04628390008AC0000204E
:1036A0000C04000070B50400A421890043580022D6
:1036B0008020C0001A500D481A5002208325ED00CA
:1036C0005855083D5A550A4A98546358002B0BD058
:1036D000A5239B00E3589B689847813DFF3D6059B7
:1036E000FCF7E8FF00236351002070BD04040000D4
:1036F0001404000010B504001848FCF7D7FFA423F9
:103700009B00E050002825D00023154A83508021DB
:103710000905043A8150083A8350124A8350124AEC
:10372000835402228321C9004254083943540F496B
:1037300043540F4943540F4943540F4942540F4ACD
:103740008354A5239B00E3585B689847002803D067
:10375000022000E0022010BD0020FCE71C04000055
:103760000C0400000404000019040000110400000F
:1037700012040000130400001404000015040000EB
:10378000002902D0A5239B00C150002070470000F3
:103790000D488546002103E00C4B5B584350043133
:1037A0000B480C4B42189A42F6D30B4A02E0002316
:1037B00013600432094B9A42F9D3FEF73DFEFCF741
:1037C000D9FCFCF71DFEFEE7005000204C39000834
:1037D00000000020D4000020D4000020280D00208C
:1037E000FEE70000F8B5C046F8BC08BC9E4670472E
:0C37F000F8B5C046F8BC08BC9E46704707
:1037FC0044465520436F6E66696700004446552069
:10380C00496E7465726661636500000053544D69BE
:10381C0063726F656C656374726F6E6963730000BD
:10382C0053544D333220446F776E4C6F6164204695
:10383C0069726D7761726520557064617465000002
:10384C0040496E7465726E616C20466C61736820C1
:10385C0020202F307830383030303030302F30332B
:10386C002A3031364B612C30312A3031364B672CB3
:10387C0030312A3036344B672C30372A3132384BC2
:10388C00672C30342A3031364B672C30312A3036A5
:10389C00344B672C30372A3132384B67000000002C
:1038AC0000000000000000000102030406070809E4
:1038BC00030406080C1018203000000084290008AE
:1038CC005E2800088C280008BA2800088429000803
:1038DC00842900084429000862290008C828000827
:1038EC00DA280008EC280008FE2800081029000837
:1038FC0022290008CA2B0008D62B0008DC2B000854
:10390C00D02B0008DC2B0008B82B0008B22B0008C9
:10391C00DC2B0008C42B0008BE2B0008D235000895
:10392C00A2350008AA350008B2350008BA350008DF
:08393C00C2350008CA3500087D
:04394400390100083D
:043948000D01000865
:10394C00B9060008C50600087D07000855070008E1
:10395C004107000899070008C1070008120100027E
:10396C0000000040830411DF00020102030100008B
:10397C00040309041A03000000000000000000000A
:10398C00000000000000000000000000000000002B
:10399C004C380008E9070008ED070008F10700089B
:1039AC00F5070008F9070008FD07000800002000D3
:1039BC00F5360008A536000879350008F9300008FE
:1039CC004D2F0008492F00085D2F0008512F0008CB
:1039DC00552F0008592F00083D2F00083D2F0008D7
:1039EC003D2F0008612F00084530000809021B001C
:1039FC00010102C0320904000000FE010206092187
:103A0C000BFF0000041A01000A060002000000402F
:043A1C0001000000A5
:040000050800379127
:00000001FF
